:020000040800F2
:100000000090002095040008DB0400084F01000860
:1000100000000000000000000000000000000000E0
:10002000000000000000000000000000E1040008E3
:100030000000000000000000050100088505000820
:10004000E7040008ED04000821050008F304000897
:10005000F90400086901000891010008B9010008CD
:10006000FF04000895020008AD020008D502000850
:1000700051010008210300080B050008390300089E
:100080005103000869030008810300089903000870
:10009000B1030008C9030008E1030008F9030008E0
:1000A00011040008110500081705000829040008BC
:0C00B00041040008590400080505000880
:1000BC0010B5064C2378002B07D1054B002B02D032
:1000CC00044800E000BF0123237010BDA0000020F5
:1000DC0000000000F0050008044B10B5002B03D005
:1000EC000349044800E000BF10BDC04600000000FA
:1000FC00A4000020F005000872B6EFF30980103858
:10010C00F0C044464D4656465F462038F0C0103885
:10011C00084A11680860084A11680868F0C8A046C7
:10012C00A946B246BB46F0C880F30988034862B6BC
:10013C00004700006C01002068010020FDFFFFFF5C
:10014C007047FEE710B5034B1868034B1B689847C4
:10015C0010BDC046BC0000200000002010B5054BAF
:10016C001868054B1B689847044B1868044B1B68B0
:10017C00984710BDDC00002020000020F800002073
:10018C003C00002010B5054B1868054B1B689847C0
:10019C00044B1868044B1B68984710BDFC000020EA
:1001AC0040000020000100204400002010B51E4B30
:1001BC0018681E4B1B6898471D4B18681D4B1B6815
:1001CC0098471D4B18681D4B1B6898471C4B1868AB
:1001DC001C4B1B6898471C4B18681C4B1B6898479A
:1001EC001B4B18681B4B1B6898471B4B18681B4B09
:1001FC001B6898471A4B18681A4B1B6898471A4B80
:10020C0018681A4B1B689847194B1868194B1B68D0
:10021C009847194B1868194B1B689847184B186866
:10022C00184B1B68984710BD0401002048000020A3
:10023C00080100204C0000200C0100205000002080
:10024C001001002054000020140100205800002050
:10025C00180100205C000020E00000202400002099
:10026C00E400002028000020E80000202C000020E2
:10027C00EC00002030000020F000002034000020B2
:10028C00F40000203800002010B5034B1868034B15
:10029C001B68984710BDC046C00000200400002019
:1002AC0010B5054B1868054B1B689847044B18682C
:1002BC00044B1B68984710BDC400002008000020A8
:1002CC00C80000200C00002010B50A4B18680A4B1F
:1002DC001B689847094B1868094B1B689847094BD2
:1002EC001868094B1B689847084B1868084B1B6823
:1002FC00984710BDCC00002010000020D00000203A
:10030C0014000020D400002018000020D800002089
:10031C001C00002010B5034B1868034B1B68984752
:10032C0010BDC046380100207C00002010B5034BE6
:10033C001868034B1B68984710BDC0463C01002051
:10034C008000002010B5034B1868034B1B689847BE
:10035C0010BDC046400100208400002010B5034BA6
:10036C001868034B1B68984710BDC0464401002019
:10037C008800002010B5034B1868034B1B68984786
:10038C0010BDC046480100208C00002010B5034B66
:10039C001868034B1B68984710BDC0462801002005
:1003AC006C00002010B5034B1868034B1B68984772
:1003BC0010BDC0462C0100207000002010B5034B6E
:1003CC001868034B1B68984710BDC04630010020CD
:1003DC007400002010B5034B1868034B1B6898473A
:1003EC0010BDC046340100207800002010B5034B2E
:1003FC001868034B1B68984710BDC0461C010020B1
:10040C006000002010B5034B1868034B1B6898471D
:10041C0010BDC046200100206400002010B5034B25
:10042C001868034B1B68984710BDC0464C01002050
:10043C009000002010B5034B1868034B1B689847BD
:10044C0010BDC046500100209400002010B5084B90
:10045C001868084B1B689847074B1868074B1B68B4
:10046C009847074B1868074B1B68984710BDC04648
:10047C005401002098000020580100209C0000200E
:10048C00240100206800002010B50B4B0B4A01E042
:10049C0002CA02C30A498B42FAD30A4B01E000227A
:1004AC0004C3094A9342FAD300F032F800F076F80C
:1004BC0000F070F8FEE7C0460000002010060008AF
:1004CC00A0000020A000002070010020FEE710B565
:1004DC00FFF7FCFF10B5FFF7F9FF10B5FFF7F6FFBC
:1004EC0010B5FFF7F3FF10B5FFF7F0FF10B5FFF7EE
:1004FC00EDFF10B5FFF7EAFF10B5FFF7E7FF10B5FA
:10050C00FFF7E4FF10B5FFF7E1FF10B5FFF7DEFFD3
:10051C0070470000144B1B6DDB0706D51249CB6DE1
:10052C0001221343CB65114B1A700F4B1B6D9B07AC
:10053C0007D50D4AD36D02210B43D3650B4B01221A
:10054C005A70094B1B6D5B0707D5074AD36D042105
:10055C000B43D365054B01229A70054AC0235B00FF
:10056C000421D1507047C046002800405C01002097
:10057C0000E100E030BF704730B505490A684B68B0
:10058C000124002512196B410A604B6030BDC04636
:10059C006001002010B5FFF7EDFFFEE770B50026F7
:1005AC000C4D0D4C641BA410A64209D1002600F082
:1005BC0019F80A4D0A4C641BA410A64205D170BD53
:1005CC00B300EB5898470136EEE7B300EB58984769
:1005DC000136F2E7080600080806000808060008BD
:1005EC000C060008F8B5C046F8BC08BC9E4670471F
:0C05FC00F8B5C046F8BC08BC9E4670472D
:04060800E500000801
:04060C00BD00000825
:100610004D0100084D0100084D0100084D01000882
:100620004D0100084D0100084D0100084D01000872
:100630004D0100084D0100084D0100084D01000862
:100640004D0100084D0100084D0100084D01000852
:100650004D0100084D0100084D0100084D01000842
:100660004D0100084D0100084D0100084D01000832
:100670004D0100084D0100084D0100084D01000822
:100680004D0100084D0100084D0100084D01000812
:100690004D0100084D0100084D0100084D01000802
:1006A0004D0100084D0100084D0100084D010008F2
:040000050800049556
:00000001FF
